{
  "_format": "hh-sol-artifact-1",
  "contractName": "AcademicCertificate",
  "sourceName": "contracts/AcademicCertificate.sol",
  "abi": [
    {
      "inputs": [],
      "stateMutability": "nonpayable",
      "type": "constructor"
    },
    {
      "anonymous": false,
      "inputs": [
        {
          "indexed": true,
          "internalType": "address",
          "name": "owner",
          "type": "address"
        },
        {
          "indexed": true,
          "internalType": "address",
          "name": "approved",
          "type": "address"
        },
        {
          "indexed": true,
          "internalType": "uint256",
          "name": "tokenId",
          "type": "uint256"
        }
      ],
      "name": "Approval",
      "type": "event"
    },
    {
      "anonymous": false,
      "inputs": [
        {
          "indexed": true,
          "internalType": "address",
          "name": "owner",
          "type": "address"
        },
        {
          "indexed": true,
          "internalType": "address",
          "name": "operator",
          "type": "address"
        },
        {
          "indexed": false,
          "internalType": "bool",
          "name": "approved",
          "type": "bool"
        }
      ],
      "name": "ApprovalForAll",
      "type": "event"
    },
    {
      "anonymous": false,
      "inputs": [
        {
          "indexed": true,
          "internalType": "uint256",
          "name": "tokenId",
          "type": "uint256"
        },
        {
          "indexed": true,
          "internalType": "address",
          "name": "student",
          "type": "address"
        },
        {
          "indexed": false,
          "internalType": "string",
          "name": "studentId",
          "type": "string"
        },
        {
          "indexed": false,
          "internalType": "string",
          "name": "studentName",
          "type": "string"
        },
        {
          "indexed": false,
          "internalType": "string",
          "name": "degree",
          "type": "string"
        },
        {
          "indexed": false,
          "internalType": "string",
          "name": "major",
          "type": "string"
        },
        {
          "indexed": false,
          "internalType": "string",
          "name": "ipfsHash",
          "type": "string"
        },
        {
          "indexed": false,
          "internalType": "uint256",
          "name": "issueDate",
          "type": "uint256"
        }
      ],
      "name": "CertificateMinted",
      "type": "event"
    },
    {
      "anonymous": false,
      "inputs": [
        {
          "indexed": true,
          "internalType": "uint256",
          "name": "tokenId",
          "type": "uint256"
        },
        {
          "indexed": false,
          "internalType": "string",
          "name": "reason",
          "type": "string"
        },
        {
          "indexed": false,
          "internalType": "uint256",
          "name": "revokedAt",
          "type": "uint256"
        }
      ],
      "name": "CertificateRevoked",
      "type": "event"
    },
    {
      "anonymous": false,
      "inputs": [
        {
          "indexed": true,
          "internalType": "address",
          "name": "previousOwner",
          "type": "address"
        },
        {
          "indexed": true,
          "internalType": "address",
          "name": "newOwner",
          "type": "address"
        }
      ],
      "name": "OwnershipTransferred",
      "type": "event"
    },
    {
      "anonymous": false,
      "inputs": [
        {
          "indexed": true,
          "internalType": "address",
          "name": "from",
          "type": "address"
        },
        {
          "indexed": true,
          "internalType": "address",
          "name": "to",
          "type": "address"
        },
        {
          "indexed": true,
          "internalType": "uint256",
          "name": "tokenId",
          "type": "uint256"
        }
      ],
      "name": "Transfer",
      "type": "event"
    },
    {
      "inputs": [
        {
          "internalType": "address",
          "name": "",
          "type": "address"
        },
        {
          "internalType": "uint256",
          "name": "",
          "type": "uint256"
        }
      ],
      "name": "approve",
      "outputs": [],
      "stateMutability": "pure",
      "type": "function"
    },
    {
      "inputs": [
        {
          "internalType": "address",
          "name": "owner",
          "type": "address"
        }
      ],
      "name": "balanceOf",
      "outputs": [
        {
          "internalType": "uint256",
          "name": "",
          "type": "uint256"
        }
      ],
      "stateMutability": "view",
      "type": "function"
    },
    {
      "inputs": [
        {
          "internalType": "uint256",
          "name": "",
          "type": "uint256"
        }
      ],
      "name": "certificates",
      "outputs": [
        {
          "internalType": "string",
          "name": "studentId",
          "type": "string"
        },
        {
          "internalType": "string",
          "name": "studentName",
          "type": "string"
        },
        {
          "internalType": "string",
          "name": "degree",
          "type": "string"
        },
        {
          "internalType": "string",
          "name": "major",
          "type": "string"
        },
        {
          "internalType": "string",
          "name": "ipfsHash",
          "type": "string"
        },
        {
          "internalType": "uint256",
          "name": "issueDate",
          "type": "uint256"
        },
        {
          "internalType": "bool",
          "name": "isRevoked",
          "type": "bool"
        },
        {
          "internalType": "uint256",
          "name": "revokedAt",
          "type": "uint256"
        },
        {
          "internalType": "string",
          "name": "revocationReason",
          "type": "string"
        }
      ],
      "stateMutability": "view",
      "type": "function"
    },
    {
      "inputs": [
        {
          "internalType": "uint256",
          "name": "tokenId",
          "type": "uint256"
        }
      ],
      "name": "getApproved",
      "outputs": [
        {
          "internalType": "address",
          "name": "",
          "type": "address"
        }
      ],
      "stateMutability": "view",
      "type": "function"
    },
    {
      "inputs": [
        {
          "internalType": "uint256",
          "name": "tokenId",
          "type": "uint256"
        }
      ],
      "name": "getCertificate",
      "outputs": [
        {
          "internalType": "string",
          "name": "studentId",
          "type": "string"
        },
        {
          "internalType": "string",
          "name": "studentName",
          "type": "string"
        },
        {
          "internalType": "string",
          "name": "degree",
          "type": "string"
        },
        {
          "internalType": "string",
          "name": "major",
          "type": "string"
        },
        {
          "internalType": "string",
          "name": "ipfsHash",
          "type": "string"
        },
        {
          "internalType": "uint256",
          "name": "issueDate",
          "type": "uint256"
        },
        {
          "internalType": "bool",
          "name": "isRevoked",
          "type": "bool"
        },
        {
          "internalType": "uint256",
          "name": "revokedAt",
          "type": "uint256"
        },
        {
          "internalType": "string",
          "name": "revocationReason",
          "type": "string"
        }
      ],
      "stateMutability": "view",
      "type": "function"
    },
    {
      "inputs": [
        {
          "internalType": "address",
          "name": "owner",
          "type": "address"
        },
        {
          "internalType": "address",
          "name": "operator",
          "type": "address"
        }
      ],
      "name": "isApprovedForAll",
      "outputs": [
        {
          "internalType": "bool",
          "name": "",
          "type": "bool"
        }
      ],
      "stateMutability": "view",
      "type": "function"
    },
    {
      "inputs": [
        {
          "internalType": "address",
          "name": "student",
          "type": "address"
        },
        {
          "internalType": "string",
          "name": "studentId",
          "type": "string"
        },
        {
          "internalType": "string",
          "name": "studentName",
          "type": "string"
        },
        {
          "internalType": "string",
          "name": "degree",
          "type": "string"
        },
        {
          "internalType": "string",
          "name": "major",
          "type": "string"
        },
        {
          "internalType": "string",
          "name": "ipfsHash",
          "type": "string"
        }
      ],
      "name": "mintCertificate",
      "outputs": [],
      "stateMutability": "nonpayable",
      "type": "function"
    },
    {
      "inputs": [],
      "name": "name",
      "outputs": [
        {
          "internalType": "string",
          "name": "",
          "type": "string"
        }
      ],
      "stateMutability": "view",
      "type": "function"
    },
    {
      "inputs": [],
      "name": "owner",
      "outputs": [
        {
          "internalType": "address",
          "name": "",
          "type": "address"
        }
      ],
      "stateMutability": "view",
      "type": "function"
    },
    {
      "inputs": [
        {
          "internalType": "uint256",
          "name": "tokenId",
          "type": "uint256"
        }
      ],
      "name": "ownerOf",
      "outputs": [
        {
          "internalType": "address",
          "name": "",
          "type": "address"
        }
      ],
      "stateMutability": "view",
      "type": "function"
    },
    {
      "inputs": [],
      "name": "renounceOwnership",
      "outputs": [],
      "stateMutability": "nonpayable",
      "type": "function"
    },
    {
      "inputs": [
        {
          "internalType": "uint256",
          "name": "tokenId",
          "type": "uint256"
        },
        {
          "internalType": "string",
          "name": "reason",
          "type": "string"
        }
      ],
      "name": "revokeCertificate",
      "outputs": [],
      "stateMutability": "nonpayable",
      "type": "function"
    },
    {
      "inputs": [
        {
          "internalType": "address",
          "name": "",
          "type": "address"
        },
        {
          "internalType": "address",
          "name": "",
          "type": "address"
        },
        {
          "internalType": "uint256",
          "name": "",
          "type": "uint256"
        }
      ],
      "name": "safeTransferFrom",
      "outputs": [],
      "stateMutability": "pure",
      "type": "function"
    },
    {
      "inputs": [
        {
          "internalType": "address",
          "name": "",
          "type": "address"
        },
        {
          "internalType": "address",
          "name": "",
          "type": "address"
        },
        {
          "internalType": "uint256",
          "name": "",
          "type": "uint256"
        },
        {
          "internalType": "bytes",
          "name": "",
          "type": "bytes"
        }
      ],
      "name": "safeTransferFrom",
      "outputs": [],
      "stateMutability": "pure",
      "type": "function"
    },
    {
      "inputs": [
        {
          "internalType": "address",
          "name": "",
          "type": "address"
        },
        {
          "internalType": "bool",
          "name": "",
          "type": "bool"
        }
      ],
      "name": "setApprovalForAll",
      "outputs": [],
      "stateMutability": "pure",
      "type": "function"
    },
    {
      "inputs": [
        {
          "internalType": "bytes4",
          "name": "interfaceId",
          "type": "bytes4"
        }
      ],
      "name": "supportsInterface",
      "outputs": [
        {
          "internalType": "bool",
          "name": "",
          "type": "bool"
        }
      ],
      "stateMutability": "view",
      "type": "function"
    },
    {
      "inputs": [],
      "name": "symbol",
      "outputs": [
        {
          "internalType": "string",
          "name": "",
          "type": "string"
        }
      ],
      "stateMutability": "view",
      "type": "function"
    },
    {
      "inputs": [
        {
          "internalType": "uint256",
          "name": "tokenId",
          "type": "uint256"
        }
      ],
      "name": "tokenURI",
      "outputs": [
        {
          "internalType": "string",
          "name": "",
          "type": "string"
        }
      ],
      "stateMutability": "view",
      "type": "function"
    },
    {
      "inputs": [
        {
          "internalType": "address",
          "name": "",
          "type": "address"
        },
        {
          "internalType": "address",
          "name": "",
          "type": "address"
        },
        {
          "internalType": "uint256",
          "name": "",
          "type": "uint256"
        }
      ],
      "name": "transferFrom",
      "outputs": [],
      "stateMutability": "pure",
      "type": "function"
    },
    {
      "inputs": [
        {
          "internalType": "address",
          "name": "newOwner",
          "type": "address"
        }
      ],
      "name": "transferOwnership",
      "outputs": [],
      "stateMutability": "nonpayable",
      "type": "function"
    }
  ],
  "bytecode": "0x60806040523480156200001157600080fd5b506040518060400160405280601481526020017f41636164656d69632043657274696669636174650000000000000000000000008152506040518060400160405280600581526020017f414345525400000000000000000000000000000000000000000000000000000081525081600090816200008f919062000412565b508060019081620000a1919062000412565b505050620000c4620000b8620000ca60201b60201c565b620000d260201b60201c565b620004f9565b600033905090565b6000600660009054906101000a900473ffffffffffffffffffffffffffffffffffffffff16905081600660006101000a81548173ffffffffffffffffffffffffffffffffffffffff021916908373ffffffffffffffffffffffffffffffffffffffff1602179055508173ffffffffffffffffffffffffffffffffffffffff168173ffffffffffffffffffffffffffffffffffffffff167f8be0079c531659141344cd1fd0a4f28419497f9722a3daafe3b4186f6b6457e060405160405180910390a35050565b600081519050919050565b7f4e487b7100000000000000000000000000000000000000000000000000000000600052604160045260246000fd5b7f4e487b7100000000000000000000000000000000000000000000000000000000600052602260045260246000fd5b600060028204905060018216806200021a57607f821691505b60208210810362000230576200022f620001d2565b5b50919050565b60008190508160005260206000209050919050565b60006020601f8301049050919050565b600082821b905092915050565b6000600883026200029a7fffffffffffffffffffffffffffffffffffffffffffffffffffffffffffffffff826200025b565b620002a686836200025b565b95508019841693508086168417925050509392505050565b6000819050919050565b6000819050919050565b6000620002f3620002ed620002e784620002be565b620002c8565b620002be565b9050919050565b6000819050919050565b6200030f83620002d2565b620003276200031e82620002fa565b84845462000268565b825550505050565b600090565b6200033e6200032f565b6200034b81848462000304565b505050565b5b8181101562000373576200036760008262000334565b60018101905062000351565b5050565b601f821115620003c2576200038c8162000236565b62000397846200024b565b81016020851015620003a7578190505b620003bf620003b6856200024b565b83018262000350565b50505b505050565b600082821c905092915050565b6000620003e760001984600802620003c7565b1980831691505092915050565b6000620004028383620003d4565b9150826002028217905092915050565b6200041d8262000198565b67ffffffffffffffff811115620004395762000438620001a3565b5b62000445825462000201565b6200045282828562000377565b600060209050601f8311600181146200048a576000841562000475578287015190505b620004818582620003f4565b865550620004f1565b601f1984166200049a8662000236565b60005b82811015620004c4578489015182556001820191506020850194506020810190506200049d565b86831015620004e45784890151620004e0601f891682620003d4565b8355505b6001600288020188555050505b505050505050565b612fd580620005096000396000f3fe608060405234801561001057600080fd5b506004361061012c5760003560e01c8063715018a6116100ad578063b1466d1d11610071578063b1466d1d14610351578063b88d4fde1461036d578063c87b56dd14610389578063e985e9c5146103b9578063f2fde38b146103e95761012c565b8063715018a6146102d35780638d13d72d146102dd5780638da5cb5b146102f957806395d89b4114610317578063a22cb465146103355761012c565b806342842e0e116100f457806342842e0e146101e757806351640fee146102035780636352211e1461023b578063663b3e221461026b57806370a08231146102a35761012c565b806301ffc9a71461013157806306fdde0314610161578063081812fc1461017f578063095ea7b3146101af57806323b872dd146101cb575b600080fd5b61014b60048036038101906101469190611c60565b610405565b6040516101589190611ca8565b60405180910390f35b6101696104e7565b6040516101769190611d53565b60405180910390f35b61019960048036038101906101949190611dab565b610579565b6040516101a69190611e19565b60405180910390f35b6101c960048036038101906101c49190611e60565b6105bf565b005b6101e560048036038101906101e09190611ea0565b6105fa565b005b61020160048036038101906101fc9190611ea0565b610635565b005b61021d60048036038101906102189190611dab565b610670565b60405161023299989796959493929190611f02565b60405180910390f35b61025560048036038101906102509190611dab565b610a8b565b6040516102629190611e19565b60405180910390f35b61028560048036038101906102809190611dab565b610b11565b60405161029a99989796959493929190611f02565b60405180910390f35b6102bd60048036038101906102b89190611fb9565b610e9c565b6040516102ca9190611fe6565b60405180910390f35b6102db610f53565b005b6102f760048036038101906102f29190612136565b610f67565b005b610301611116565b60405161030e9190611e19565b60405180910390f35b61031f611140565b60405161032c9190611d53565b60405180910390f35b61034f600480360381019061034a919061227b565b6111d2565b005b61036b600480360381019061036691906122bb565b61120d565b005b610387600480360381019061038291906123b8565b611346565b005b6103a3600480360381019061039e9190611dab565b611381565b6040516103b09190611d53565b60405180910390f35b6103d360048036038101906103ce919061243b565b611412565b6040516103e09190611ca8565b60405180910390f35b61040360048036038101906103fe9190611fb9565b6114a6565b005b60007f80ac58cd000000000000000000000000000000000000000000000000000000007bffffffffffffffffffffffffffffffffffffffffffffffffffffffff1916827bffffffffffffffffffffffffffffffffffffffffffffffffffffffff191614806104d057507f5b5e139f000000000000000000000000000000000000000000000000000000007bffffffffffffffffffffffffffffffffffffffffffffffffffffffff1916827bffffffffffffffffffffffffffffffffffffffffffffffffffffffff1916145b806104e057506104df82611529565b5b9050919050565b6060600080546104f6906124aa565b80601f0160208091040260200160405190810160405280929190818152602001828054610522906124aa565b801561056f5780601f106105445761010080835404028352916020019161056f565b820191906000526020600020905b81548152906001019060200180831161055257829003601f168201915b5050505050905090565b600061058482611593565b6004600083815260200190815260200160002060009054906101000a900473ffffffffffffffffffffffffffffffffffffffff169050919050565b6040517f08c379a00000000000000000000000000000000000000000000000000000000081526004016105f190612527565b60405180910390fd5b6040517f08c379a000000000000000000000000000000000000000000000000000000000815260040161062c906125b9565b60405180910390fd5b6040517f08c379a0000000000000000000000000000000000000000000000000000000008152600401610667906125b9565b60405180910390fd5b6060806060806060600080600060606000600860008c8152602001908152602001600020604051806101200160405290816000820180546106b0906124aa565b80601f01602080910402602001604051908101604052809291908181526020018280546106dc906124aa565b80156107295780601f106106fe57610100808354040283529160200191610729565b820191906000526020600020905b81548152906001019060200180831161070c57829003601f168201915b50505050508152602001600182018054610742906124aa565b80601f016020809104026020016040519081016040528092919081815260200182805461076e906124aa565b80156107bb5780601f10610790576101008083540402835291602001916107bb565b820191906000526020600020905b81548152906001019060200180831161079e57829003601f168201915b505050505081526020016002820180546107d4906124aa565b80601f0160208091040260200160405190810160405280929190818152602001828054610800906124aa565b801561084d5780601f106108225761010080835404028352916020019161084d565b820191906000526020600020905b81548152906001019060200180831161083057829003601f168201915b50505050508152602001600382018054610866906124aa565b80601f0160208091040260200160405190810160405280929190818152602001828054610892906124aa565b80156108df5780601f106108b4576101008083540402835291602001916108df565b820191906000526020600020905b8154815290600101906020018083116108c257829003601f168201915b505050505081526020016004820180546108f8906124aa565b80601f0160208091040260200160405190810160405280929190818152602001828054610924906124aa565b80156109715780601f1061094657610100808354040283529160200191610971565b820191906000526020600020905b81548152906001019060200180831161095457829003601f168201915b50505050508152602001600582015481526020016006820160009054906101000a900460ff16151515158152602001600782015481526020016008820180546109b9906124aa565b80601f01602080910402602001604051908101604052809291908181526020018280546109e5906124aa565b8015610a325780601f10610a0757610100808354040283529160200191610a32565b820191906000526020600020905b815481529060010190602001808311610a1557829003601f168201915b5050505050815250509050806000015181602001518260400151836060015184608001518560a001518660c001518760e00151886101000151995099509950995099509950995099509950509193959799909294969850565b600080610a97836115de565b9050600073ffffffffffffffffffffffffffffffffffffffff168173ffffffffffffffffffffffffffffffffffffffff1603610b08576040517f08c379a0000000000000000000000000000000000000000000000000000000008152600401610aff90612625565b60405180910390fd5b80915050919050565b6008602052806000526040600020600091509050806000018054610b34906124aa565b80601f0160208091040260200160405190810160405280929190818152602001828054610b60906124aa565b8015610bad5780601f10610b8257610100808354040283529160200191610bad565b820191906000526020600020905b815481529060010190602001808311610b9057829003601f168201915b505050505090806001018054610bc2906124aa565b80601f0160208091040260200160405190810160405280929190818152602001828054610bee906124aa565b8015610c3b5780601f10610c1057610100808354040283529160200191610c3b565b820191906000526020600020905b815481529060010190602001808311610c1e57829003601f168201915b505050505090806002018054610c50906124aa565b80601f0160208091040260200160405190810160405280929190818152602001828054610c7c906124aa565b8015610cc95780601f10610c9e57610100808354040283529160200191610cc9565b820191906000526020600020905b815481529060010190602001808311610cac57829003601f168201915b505050505090806003018054610cde906124aa565b80601f0160208091040260200160405190810160405280929190818152602001828054610d0a906124aa565b8015610d575780601f10610d2c57610100808354040283529160200191610d57565b820191906000526020600020905b815481529060010190602001808311610d3a57829003601f168201915b505050505090806004018054610d6c906124aa565b80601f0160208091040260200160405190810160405280929190818152602001828054610d98906124aa565b8015610de55780601f10610dba57610100808354040283529160200191610de5565b820191906000526020600020905b815481529060010190602001808311610dc857829003601f168201915b5050505050908060050154908060060160009054906101000a900460ff1690806007015490806008018054610e19906124aa565b80601f0160208091040260200160405190810160405280929190818152602001828054610e45906124aa565b8015610e925780601f10610e6757610100808354040283529160200191610e92565b820191906000526020600020905b815481529060010190602001808311610e7557829003601f168201915b5050505050905089565b60008073ffffffffffffffffffffffffffffffffffffffff168273ffffffffffffffffffffffffffffffffffffffff1603610f0c576040517f08c379a0000000000000000000000000000000000000000000000000000000008152600401610f03906126b7565b60405180910390fd5b600360008373ffffffffffffffffffffffffffffffffffffffff1673ffffffffffffffffffffffffffffffffffffffff168152602001908152602001600020549050919050565b610f5b61161b565b610f656000611699565b565b610f6f61161b565b6000600760008154610f8090612706565b9190508190559050610f92878261175f565b604051806101200160405280878152602001868152602001858152602001848152602001838152602001428152602001600015158152602001600081526020016040518060200160405280600081525081525060086000838152602001908152602001600020600082015181600001908161100d91906128fa565b50602082015181600101908161102391906128fa565b50604082015181600201908161103991906128fa565b50606082015181600301908161104f91906128fa565b50608082015181600401908161106591906128fa565b5060a0820151816005015560c08201518160060160006101000a81548160ff02191690831515021790555060e082015181600701556101008201518160080190816110b091906128fa565b509050508673ffffffffffffffffffffffffffffffffffffffff16817f61871b6c4e3b8db8ee9d8279a4e6e6406ed4d6e5039fc182e281551c27defc42888888888842604051611105969594939291906129cc565b60405180910390a350505050505050565b6000600660009054906101000a900473ffffffffffffffffffffffffffffffffffffffff16905090565b60606001805461114f906124aa565b80601f016020809104026020016040519081016040528092919081815260200182805461117b906124aa565b80156111c85780601f1061119d576101008083540402835291602001916111c8565b820191906000526020600020905b8154815290600101906020018083116111ab57829003601f168201915b5050505050905090565b6040517f08c379a000000000000000000000000000000000000000000000000000000000815260040161120490612527565b60405180910390fd5b61121561161b565b60008211801561122757506007548211155b611266576040517f08c379a000000000000000000000000000000000000000000000000000000000815260040161125d90612a9c565b60405180910390fd5b60006008600084815260200190815260200160002090508060060160009054906101000a900460ff16156112cf576040517f08c379a00000000000000000000000000000000000000000000000000000000081526004016112c690612b08565b60405180910390fd5b60018160060160006101000a81548160ff0219169083151502179055504281600701819055508181600801908161130691906128fa565b50827f9f1859cbcd7e1f2bbe8e8bfefbd222bcf1084268443bb375cfaefc48540b96c18342604051611339929190612b28565b60405180910390a2505050565b6040517f08c379a0000000000000000000000000000000000000000000000000000000008152600401611378906125b9565b60405180910390fd5b60608160008111801561139657506007548111155b6113d5576040517f08c379a00000000000000000000000000000000000000000000000000000000081526004016113cc90612a9c565b60405180910390fd5b600860008481526020019081526020016000206004016040516020016113fb9190612c32565b604051602081830303815290604052915050919050565b6000600560008473ffffffffffffffffffffffffffffffffffffffff1673ffffffffffffffffffffffffffffffffffffffff16815260200190815260200160002060008373ffffffffffffffffffffffffffffffffffffffff1673ffffffffffffffffffffffffffffffffffffffff16815260200190815260200160002060009054906101000a900460ff16905092915050565b6114ae61161b565b600073ffffffffffffffffffffffffffffffffffffffff168173ffffffffffffffffffffffffffffffffffffffff160361151d576040517f08c379a000000000000000000000000000000000000000000000000000000000815260040161151490612cc6565b60405180910390fd5b61152681611699565b50565b60007f01ffc9a7000000000000000000000000000000000000000000000000000000007bffffffffffffffffffffffffffffffffffffffffffffffffffffffff1916827bffffffffffffffffffffffffffffffffffffffffffffffffffffffff1916149050919050565b61159c8161177d565b6115db576040517f08c379a00000000000000000000000000000000000000000000000000000000081526004016115d290612625565b60405180910390fd5b50565b60006002600083815260200190815260200160002060009054906101000a900473ffffffffffffffffffffffffffffffffffffffff169050919050565b6116236117be565b73ffffffffffffffffffffffffffffffffffffffff16611641611116565b73ffffffffffffffffffffffffffffffffffffffff1614611697576040517f08c379a000000000000000000000000000000000000000000000000000000000815260040161168e90612d32565b60405180910390fd5b565b6000600660009054906101000a900473ffffffffffffffffffffffffffffffffffffffff16905081600660006101000a81548173ffffffffffffffffffffffffffffffffffffffff021916908373ffffffffffffffffffffffffffffffffffffffff1602179055508173ffffffffffffffffffffffffffffffffffffffff168173ffffffffffffffffffffffffffffffffffffffff167f8be0079c531659141344cd1fd0a4f28419497f9722a3daafe3b4186f6b6457e060405160405180910390a35050565b6117798282604051806020016040528060008152506117c6565b5050565b60008073ffffffffffffffffffffffffffffffffffffffff1661179f836115de565b73ffffffffffffffffffffffffffffffffffffffff1614159050919050565b600033905090565b6117d08383611821565b6117dd6000848484611a3e565b61181c576040517f08c379a000000000000000000000000000000000000000000000000000000000815260040161181390612dc4565b60405180910390fd5b505050565b600073ffffffffffffffffffffffffffffffffffffffff168273ffffffffffffffffffffffffffffffffffffffff1603611890576040517f08c379a000000000000000000000000000000000000000000000000000000000815260040161188790612e30565b60405180910390fd5b6118998161177d565b156118d9576040517f08c379a00000000000000000000000000000000000000000000000000000000081526004016118d090612e9c565b60405180910390fd5b6118e7600083836001611bc5565b6118f08161177d565b15611930576040517f08c379a000000000000000000000000000000000000000000000000000000000815260040161192790612e9c565b60405180910390fd5b6001600360008473ffffffffffffffffffffffffffffffffffffffff1673ffffffffffffffffffffffffffffffffffffffff16815260200190815260200160002060008282540192505081905550816002600083815260200190815260200160002060006101000a81548173ffffffffffffffffffffffffffffffffffffffff021916908373ffffffffffffffffffffffffffffffffffffffff160217905550808273ffffffffffffffffffffffffffffffffffffffff16600073ffffffffffffffffffffffffffffffffffffffff167fddf252ad1be2c89b69c2b068fc378daa952ba7f163c4a11628f55a4df523b3ef60405160405180910390a4611a3a600083836001611bcb565b5050565b6000611a5f8473ffffffffffffffffffffffffffffffffffffffff16611bd1565b15611bb8578373ffffffffffffffffffffffffffffffffffffffff1663150b7a02611a886117be565b8786866040518563ffffffff1660e01b8152600401611aaa9493929190612f11565b6020604051808303816000875af1925050508015611ae657506040513d601f19601f82011682018060405250810190611ae39190612f72565b60015b611b68573d8060008114611b16576040519150601f19603f3d011682016040523d82523d6000602084013e611b1b565b606091505b506000815103611b60576040517f08c379a0000000000000000000000000000000000000000000000000000000008152600401611b5790612dc4565b60405180910390fd5b805181602001fd5b63150b7a0260e01b7bffffffffffffffffffffffffffffffffffffffffffffffffffffffff1916817bffffffffffffffffffffffffffffffffffffffffffffffffffffffff191614915050611bbd565b600190505b949350505050565b50505050565b50505050565b6000808273ffffffffffffffffffffffffffffffffffffffff163b119050919050565b6000604051905090565b600080fd5b600080fd5b60007fffffffff0000000000000000000000000000000000000000000000000000000082169050919050565b611c3d81611c08565b8114611c4857600080fd5b50565b600081359050611c5a81611c34565b92915050565b600060208284031215611c7657611c75611bfe565b5b6000611c8484828501611c4b565b91505092915050565b60008115159050919050565b611ca281611c8d565b82525050565b6000602082019050611cbd6000830184611c99565b92915050565b600081519050919050565b600082825260208201905092915050565b60005b83811015611cfd578082015181840152602081019050611ce2565b60008484015250505050565b6000601f19601f8301169050919050565b6000611d2582611cc3565b611d2f8185611cce565b9350611d3f818560208601611cdf565b611d4881611d09565b840191505092915050565b60006020820190508181036000830152611d6d8184611d1a565b905092915050565b6000819050919050565b611d8881611d75565b8114611d9357600080fd5b50565b600081359050611da581611d7f565b92915050565b600060208284031215611dc157611dc0611bfe565b5b6000611dcf84828501611d96565b91505092915050565b600073ffffffffffffffffffffffffffffffffffffffff82169050919050565b6000611e0382611dd8565b9050919050565b611e1381611df8565b82525050565b6000602082019050611e2e6000830184611e0a565b92915050565b611e3d81611df8565b8114611e4857600080fd5b50565b600081359050611e5a81611e34565b92915050565b60008060408385031215611e7757611e76611bfe565b5b6000611e8585828601611e4b565b9250506020611e9685828601611d96565b9150509250929050565b600080600060608486031215611eb957611eb8611bfe565b5b6000611ec786828701611e4b565b9350506020611ed886828701611e4b565b9250506040611ee986828701611d96565b9150509250925092565b611efc81611d75565b82525050565b6000610120820190508181036000830152611f1d818c611d1a565b90508181036020830152611f31818b611d1a565b90508181036040830152611f45818a611d1a565b90508181036060830152611f598189611d1a565b90508181036080830152611f6d8188611d1a565b9050611f7c60a0830187611ef3565b611f8960c0830186611c99565b611f9660e0830185611ef3565b818103610100830152611fa98184611d1a565b90509a9950505050505050505050565b600060208284031215611fcf57611fce611bfe565b5b6000611fdd84828501611e4b565b91505092915050565b6000602082019050611ffb6000830184611ef3565b92915050565b600080fd5b600080fd5b7f4e487b7100000000000000000000000000000000000000000000000000000000600052604160045260246000fd5b61204382611d09565b810181811067ffffffffffffffff821117156120625761206161200b565b5b80604052505050565b6000612075611bf4565b9050612081828261203a565b919050565b600067ffffffffffffffff8211156120a1576120a061200b565b5b6120aa82611d09565b9050602081019050919050565b82818337600083830152505050565b60006120d96120d484612086565b61206b565b9050828152602081018484840111156120f5576120f4612006565b5b6121008482856120b7565b509392505050565b600082601f83011261211d5761211c612001565b5b813561212d8482602086016120c6565b91505092915050565b60008060008060008060c0878903121561215357612152611bfe565b5b600061216189828a01611e4b565b965050602087013567ffffffffffffffff81111561218257612181611c03565b5b61218e89828a01612108565b955050604087013567ffffffffffffffff8111156121af576121ae611c03565b5b6121bb89828a01612108565b945050606087013567ffffffffffffffff8111156121dc576121db611c03565b5b6121e889828a01612108565b935050608087013567ffffffffffffffff81111561220957612208611c03565b5b61221589828a01612108565b92505060a087013567ffffffffffffffff81111561223657612235611c03565b5b61224289828a01612108565b9150509295509295509295565b61225881611c8d565b811461226357600080fd5b50565b6000813590506122758161224f565b92915050565b6000806040838503121561229257612291611bfe565b5b60006122a085828601611e4b565b92505060206122b185828601612266565b9150509250929050565b600080604083850312156122d2576122d1611bfe565b5b60006122e085828601611d96565b925050602083013567ffffffffffffffff81111561230157612300611c03565b5b61230d85828601612108565b9150509250929050565b600067ffffffffffffffff8211156123325761233161200b565b5b61233b82611d09565b9050602081019050919050565b600061235b61235684612317565b61206b565b90508281526020810184848401111561237757612376612006565b5b6123828482856120b7565b509392505050565b600082601f83011261239f5761239e612001565b5b81356123af848260208601612348565b91505092915050565b600080600080608085870312156123d2576123d1611bfe565b5b60006123e087828801611e4b565b94505060206123f187828801611e4b565b935050604061240287828801611d96565b925050606085013567ffffffffffffffff81111561242357612422611c03565b5b61242f8782880161238a565b91505092959194509250565b6000806040838503121561245257612451611bfe565b5b600061246085828601611e4b565b925050602061247185828601611e4b565b9150509250929050565b7f4e487b7100000000000000000000000000000000000000000000000000000000600052602260045260246000fd5b600060028204905060018216806124c257607f821691505b6020821081036124d5576124d461247b565b5b50919050565b7f536f756c626f756e643a204e6f20617070726f76616c7320616c6c6f77656400600082015250565b6000612511601f83611cce565b915061251c826124db565b602082019050919050565b6000602082019050818103600083015261254081612504565b9050919050565b7f536f756c626f756e643a2043657274696669636174652063616e6e6f7420626560008201527f207472616e736665727265640000000000000000000000000000000000000000602082015250565b60006125a3602c83611cce565b91506125ae82612547565b604082019050919050565b600060208201905081810360008301526125d281612596565b9050919050565b7f4552433732313a20696e76616c696420746f6b656e2049440000000000000000600082015250565b600061260f601883611cce565b915061261a826125d9565b602082019050919050565b6000602082019050818103600083015261263e81612602565b9050919050565b7f4552433732313a2061646472657373207a65726f206973206e6f74206120766160008201527f6c6964206f776e65720000000000000000000000000000000000000000000000602082015250565b60006126a1602983611cce565b91506126ac82612645565b604082019050919050565b600060208201905081810360008301526126d081612694565b9050919050565b7f4e487b7100000000000000000000000000000000000000000000000000000000600052601160045260246000fd5b600061271182611d75565b91507fffffffffffffffffffffffffffffffffffffffffffffffffffffffffffffffff8203612743576127426126d7565b5b600182019050919050565b60008190508160005260206000209050919050565b60006020601f8301049050919050565b600082821b905092915050565b6000600883026127b07fffffffffffffffffffffffffffffffffffffffffffffffffffffffffffffffff82612773565b6127ba8683612773565b95508019841693508086168417925050509392505050565b6000819050919050565b60006127f76127f26127ed84611d75565b6127d2565b611d75565b9050919050565b6000819050919050565b612811836127dc565b61282561281d826127fe565b848454612780565b825550505050565b600090565b61283a61282d565b612845818484612808565b505050565b5b818110156128695761285e600082612832565b60018101905061284b565b5050565b601f8211156128ae5761287f8161274e565b61288884612763565b81016020851015612897578190505b6128ab6128a385612763565b83018261284a565b50505b505050565b600082821c905092915050565b60006128d1600019846008026128b3565b1980831691505092915050565b60006128ea83836128c0565b9150826002028217905092915050565b61290382611cc3565b67ffffffffffffffff81111561291c5761291b61200b565b5b61292682546124aa565b61293182828561286d565b600060209050601f8311600181146129645760008415612952578287015190505b61295c85826128de565b8655506129c4565b601f1984166129728661274e565b60005b8281101561299a57848901518255600182019150602085019450602081019050612975565b868310156129b757848901516129b3601f8916826128c0565b8355505b6001600288020188555050505b505050505050565b600060c08201905081810360008301526129e68189611d1a565b905081810360208301526129fa8188611d1a565b90508181036040830152612a0e8187611d1a565b90508181036060830152612a228186611d1a565b90508181036080830152612a368185611d1a565b9050612a4560a0830184611ef3565b979650505050505050565b7f436572746966696361746520646f6573206e6f74206578697374000000000000600082015250565b6000612a86601a83611cce565b9150612a9182612a50565b602082019050919050565b60006020820190508181036000830152612ab581612a79565b9050919050565b7f436572746966696361746520616c7265616479207265766f6b65640000000000600082015250565b6000612af2601b83611cce565b9150612afd82612abc565b602082019050919050565b60006020820190508181036000830152612b2181612ae5565b9050919050565b60006040820190508181036000830152612b428185611d1a565b9050612b516020830184611ef3565b9392505050565b600081905092915050565b7f697066733a2f2f00000000000000000000000000000000000000000000000000600082015250565b6000612b99600783612b58565b9150612ba482612b63565b600782019050919050565b60008154612bbc816124aa565b612bc68186612b58565b94506001821660008114612be15760018114612bf657612c29565b60ff1983168652811515820286019350612c29565b612bff8561274e565b60005b83811015612c2157815481890152600182019150602081019050612c02565b838801955050505b50505092915050565b6000612c3d82612b8c565b9150612c498284612baf565b915081905092915050565b7f4f776e61626c653a206e6577206f776e657220697320746865207a65726f206160008201527f6464726573730000000000000000000000000000000000000000000000000000602082015250565b6000612cb0602683611cce565b9150612cbb82612c54565b604082019050919050565b60006020820190508181036000830152612cdf81612ca3565b9050919050565b7f4f776e61626c653a2063616c6c6572206973206e6f7420746865206f776e6572600082015250565b6000612d1c602083611cce565b9150612d2782612ce6565b602082019050919050565b60006020820190508181036000830152612d4b81612d0f565b9050919050565b7f4552433732313a207472616e7366657220746f206e6f6e20455243373231526560008201527f63656976657220696d706c656d656e7465720000000000000000000000000000602082015250565b6000612dae603283611cce565b9150612db982612d52565b604082019050919050565b60006020820190508181036000830152612ddd81612da1565b9050919050565b7f4552433732313a206d696e7420746f20746865207a65726f2061646472657373600082015250565b6000612e1a602083611cce565b9150612e2582612de4565b602082019050919050565b60006020820190508181036000830152612e4981612e0d565b9050919050565b7f4552433732313a20746f6b656e20616c7265616479206d696e74656400000000600082015250565b6000612e86601c83611cce565b9150612e9182612e50565b602082019050919050565b60006020820190508181036000830152612eb581612e79565b9050919050565b600081519050919050565b600082825260208201905092915050565b6000612ee382612ebc565b612eed8185612ec7565b9350612efd818560208601611cdf565b612f0681611d09565b840191505092915050565b6000608082019050612f266000830187611e0a565b612f336020830186611e0a565b612f406040830185611ef3565b8181036060830152612f528184612ed8565b905095945050505050565b600081519050612f6c81611c34565b92915050565b600060208284031215612f8857612f87611bfe565b5b6000612f9684828501612f5d565b9150509291505056fea2646970667358221220fb75b6aa6ffd4ebfb7d98556bc72d68766a8466bac6c1eccae80c9e7ce1fc69f64736f6c63430008140033",
  "linkReferences": {},
  "deployedLinkReferences": {}
}